:020000040800F2
:1000000008080020050200086102000861020008DB
:10001000610200086102000861020008000000009F
:100020000000000000000000000000006102000865
:10003000610200080000000061020008610200087F
:100040006102000861020008610200086102000804
:1000500061020008610200087D0C000861020008CE
:1000600061020008610200086102000861020008E4
:1000700061020008610200086102000861020008D4
:1000800061020008610200086102000861020008C4
:1000900061020008610200086102000861020008B4
:1000A00061020008610200086102000861020008A4
:1000B000990C000861020008610200086102000852
:1000C0006102000861020008610200086102000884
:1000D0006102000861020008610200086102000874
:1000E0006102000861020008610200086102000864
:1000F0006102000861020008610200086102000854
:100100006102000861020008610200086102000843
:100110006102000861020008610200086102000833
:100120006102000861020008610200086102000823
:100130006102000861020008610200086102000813
:100140006102000861020008610200086102000803
:1001500061020008610200086102000861020008F3
:1001600061020008610200086102000861020008E3
:1001700061020008610200086102000861020008D3
:10018000610200086102000890B484B000AF02462A
:100190000B46FA71BB710023FB60BB7903F00303CC
:1001A0009B000F2202FA03F3FB60154BBA79920809
:1001B000D2B21349B8798008C0B2023051F8200099
:1001C000F968C9430140023243F822100C4BBA7956
:1001D0009208D2B20A49B8798008C0B2023051F808
:1001E0002000FC79B97901F00301890004FA01F1DA
:1001F0000143023243F822101037BD4690BC7047CD
:100200000038014080B582B000AF104B7B60104BCE
:100210003B6007E03B681A1D3A607A68111D7960FF
:1002200012681A603A680B4B9A42F3D30A480B499A
:100230004FF000028842B8BF40F8042BFFF6FAAF37
:1002400000F012F80837BD4680BD00BF2825000821
:10025000000000200400002004000020080000200E
:1002600080B400AFFEE700BF80B584B000AF00F0FF
:1002700033FD4FF000033B604FF00003FB604FF095
:100280000003BB604FF000037B60386802F022F986
:100290000346DBB20020194600F0A2FC386802F0E9
:1002A00019F90346DBB20120194600F099FC3868C1
:1002B00002F010F90346DBB20220194600F090FC70
:1002C0000A2000F0ADFC00F0C1FC034618469A4934
:1002D00001F0EEFF03463B6038684FF0000102F08A
:1002E000E5F80346002B18D038684FF07A5102F039
:1002F000C9F80346002B10D08F4BFB6038688E493D
:1003000001F022FF034618464FF0814101F01CFF27
:100310000346BB604FF000037B6038684FF07A51B2
:1003200002F0C4F80346002B5CD038684FF07C51D3
:1003300002F0A8F80346002B54D0386801F040FBC7
:1003400002460B46104619464FF000027B4B01F067
:10035000D7F902460B46104619464FF00002784B7B
:1003600001F082FB02460B46104619464FF0000290
:10037000744B01F079FB02460B464FF000007049C8
:1003800001F0BEF902460B461046194601F07EFD0B
:100390000346FB60684BBB60386801F011FB024606
:1003A0000B46104619464FF00002644B01F0A8F9C5
:1003B00002460B46104619464FF00002604B01F012
:1003C00053FB02460B46104619464FF000025D4BA8
:1003D00001F04AFB02460B461046194601F056FD55
:1003E00003467B6038684FF07C5102F05FF80346AB
:1003F000002B39D038684FF07D5102F043F80346A6
:10040000002B31D04FF00003FB60386801F0D8FAC0
:1004100002460B46104619464FF000024A4B01F0C7
:100420006FF902460B46104619464FF00002444B46
:1004300001F01AFB02460B46104619464FF0000227
:10044000404B01F011FB02460B464FF000003C49C7
:1004500001F056F902460B461046194601F016FD0A
:100460000346BB60344B7B6038684FF07D5102F02F
:100470001DF80346002B6BD038684FF07E5102F018
:100480000BF80346002B63D0386801F099FA024656
:100490000B46104619464FF000022C4B01F030F984
:1004A00002460B46104619464FF00002244B01F05D
:1004B000DBFA02460B46104619464FF00002214B6C
:1004C00001F0D2FA02460B461046194601F0DEFC56
:1004D0000346FB604FF00003BB60386801F070FA20
:1004E00002460B46104619464FF00002174B01F02A
:1004F00007F902460B46104619464FF00002104B12
:1005000001F0B2FA02460B46104619464FF00002BF
:100510000C4B01F0A9FA02460B464FF000000849C7
:1005200001F0EEF802460B461046194601F0AEFC0B
:1005300003467B600CE000BF0000C8420000D03FD3
:1005400000005940000010400000E03F0000E83F7C
:10055000F86801F0BFFF0346DBB20020194600F047
:100560003FFBB86801F0B6FF0346DBB20120194635
:1005700000F036FB786801F0ADFF0346DBB20220E5
:10058000194600F02DFB9BE680B400AFBD465DF838
:10059000047B704780B400AF084B1B88013B9AB2C4
:1005A000064B1A80054B1B88002B03D1034B4FF4DD
:1005B0007A721A80BD465DF8047B70470000002007
:1005C00080B483B000AF78600B46FB70FB78002BE3
:1005D00006D0094B084A116B7A680A431A6306E091
:1005E000054B054A116B7A68D2430A401A630C37EF
:1005F000BD465DF8047B70470038024080B483B08C
:1006000000AF78600B46FB70FB78002B06D0094BDF
:10061000084A116C7A680A431A6406E0054B054AD9
:10062000116C7A68D2430A401A640C37BD465DF8F3
:10063000047B70470038024080B483B000AF78601C
:100640000B46FB70FB78002B06D0094B084A516C17
:100650007A680A435A6406E0054B054A516C7A6889
:10066000D2430A405A640C37BD465DF8047B70479C
:100670000038024080B485B000AF78603960002354
:10068000FB600023FB727B685B68FB60FB6823F008
:10069000407323F48073FB603B681B791A023B684C
:1006A0001B681343FA681343FB607B68FA685A605F
:1006B0007B689B68FB60FA68174B1340FB603B68E4
:1006C0001A693B68DB681A433B689B681A433B68BE
:1006D0005B795B001343FA681343FB607B68FA683D
:1006E0009A607B68DB6AFB60FB6823F47003FB6045
:1006F0003B681B7D013BDAB2FB7A1343FB72FB7A4A
:100700001B05FA681343FB607B68FA68DA621437EA
:10071000BD465DF8047B7047FDF7FFC080B483B031
:1007200000AF78607B6800221A607B6800221A7133
:100730007B6800225A717B6800229A607B680022E5
:10074000DA607B6800221A617B6801221A750C3717
:10075000BD465DF8047B704780B485B000AF78601B
:100760000023FB600E4B5B68FB60FA680D4B134087
:10077000FB607B681A687B685B681A437B689B68D0
:100780001A437B68DB681343FA681343FB60044B2E
:10079000FA685A601437BD465DF8047B704700BFA5
:1007A00000230140E030FCFF80B483B000AF7860EC
:1007B0007B6800221A607B6800225A607B680022F6
:1007C0009A607B680022DA600C37BD465DF8047BD6
:1007D000704700BF80B483B000AF78600B46FB70F9
:1007E000FB78002B06D07B689B6843F001027B6896
:1007F0009A6005E07B689B6823F001027B689A6041
:100800000C37BD465DF8047B704700BF80B485B0EF
:1008100000AF7860F970BA707B700023FB60002332
:10082000BB60FB78092B23D97B68DB68FB60FB7816
:10083000A3F10A0213465B001344072202FA03F3F2
:10084000BB60BB68DB43FA681340FB607978FB78D8
:10085000A3F10A0213465B00134401FA03F3BB60E1
:10086000FA68BB681343FB607B68FA68DA601EE0D5
:100870007B681B69FB60FA7813465B001344072210
:1008800002FA03F3BB60BB68DB43FA681340FB600A
:100890007978FA7813465B00134401FA03F3BB60DE
:1008A000FA68BB681343FB607B68FA681A61BB781F
:1008B000062B21D87B685B6BFB60BB785A1E134606
:1008C0009B0013441F2202FA03F3BB60BB68DB43A7
:1008D000FA681340FB60F978BB785A1E13469B00F8
:1008E000134401FA03F3BB60FA68BB681343FB606F
:1008F0007B68FA685A6347E0BB780C2B21D87B6889
:100900001B6BFB60BB78DA1F13469B0013441F224E
:1009100002FA03F3BB60BB68DB43FA681340FB6079
:10092000F978BB78DA1F13469B00134401FA03F3EE
:10093000BB60FA68BB681343FB607B68FA681A63A4
:1009400022E07B68DB6AFB60BB78A3F10D021346F3
:100950009B0013441F2202FA03F3BB60BB68DB4316
:10096000FA681340FB60F978BB78A3F10D021346D7
:100970009B00134401FA03F3BB60FA68BB6813439E
:10098000FB607B68FA68DA621437BD465DF8047B69
:10099000704700BF80B483B000AF78607B689B680D
:1009A00043F080427B689A600C37BD465DF8047B5B
:1009B000704700BF80B483B000AF78607B68DB6CA9
:1009C0009BB218460C37BD465DF8047B704700BFEC
:1009D00080B485B000AF78600B46FB700023FB73DA
:1009E0007B681A68FB781340002B02D00123FB734D
:1009F00001E00023FB73FB7B18461437BD465DF80E
:100A0000047B704780B487B000AF78603960002302
:100A10007B6100233B610023FB6000237B6176E068
:100A20007B69012202FA03F33B613B681A683B6968
:100A30001340FB60FA683B699A4265D17B681A688B
:100A40007B695B00032101FA03F3DB431A407B68F7
:100A50001A607B681A683B681B7919467B695B00E2
:100A600001FA03F31A437B681A603B681B79012B78
:100A700003D03B681B79022B2ED17B689A687B6977
:100A80005B00032101FA03F3DB431A407B689A60A1
:100A90007B689A683B685B7919467B695B0001FA61
:100AA00003F31A437B689A607B685A687B699BB240
:100AB000012101FA03F3DB431A407B685A607B682B
:100AC0005A683B689B7919467B699BB201FA03F32C
:100AD0009BB21A437B685A607B68DA687B699BB279
:100AE0005B00032101FA03F3DB431A407B68DA6001
:100AF0007B68DA683B68DB7919467B695B0001FA41
:100B000003F31A437B68DA607B6901337B617B699D
:100B10000F2B85D91C37BD465DF8047B704700BF9D
:100B200080B483B000AF78607B684FF6FF721A60C4
:100B30007B6800221A717B6800225A717B68002250
:100B40009A717B680022DA710C37BD465DF8047B30
:100B5000704700BF80B485B000AF786013460A4686
:100B60007A807B700023FB600023BB607A787B88EF
:100B700003F007039B0002FA03F3FB607B88DB08AA
:100B80009BB21A467B88DB089BB219467B6808310A
:100B900053F821107B8803F007039B000F2000FA15
:100BA00003F3DB4319407B68083243F822107B884B
:100BB000DB089BB21A467B68083253F82220FB6898
:100BC0001343BB607B88DB089BB21A467B68083204
:100BD000B96843F822101437BD465DF8047B7047AE
:100BE00080B483B000AF02460B46FA71BB71FA794C
:100BF000094B53F82220BB7942F2107101FB03F339
:100C0000064981FB03014911DB17CB1A13600C372E
:100C1000BD465DF8047B70471C2500081F85EB511D
:100C200080B483B000AF0346FB80074BFA881A807C
:100C300000BF054B1B889BB2002BFAD10C37BD4679
:100C40005DF8047B704700BF0400002080B500AF52
:100C500000F074F90346642202FB03F3064A82FBA8
:100C600003121A44D212DB17D31A184601F018FAED
:100C70000346184680BD00BF8100088080B500AFE4
:100C8000012000F0F3F90346002B04D0012000F00E
:100C9000DFF9FFF779FC80BD80B500AF4FF08040F1
:100CA000012100F0EFFC0346002B12D04FF08040F2
:100CB000012100F011FDFFF76DFC064B1B889BB274
:100CC000002B06D0034B1B889BB2013B9AB2014B11
:100CD0001A8080BD0400002080B500AF00F0E6F867
:100CE00000F070F800F004F800F03CF880BD00BFA0
:100CF00080B586B000AF01200121FFF761FC012320
:100D00003B6100233B7502237B750023BB750223E7
:100D1000FB7507F1100312481946FFF773FE002018
:100D20000021FFF731FA01237B6000233B7210237F
:100D30007B720123BB723B1D184600F01BF9062392
:100D40003B7301237B730123BB730123FB7307F107
:100D50000C03184600F0AEF91837BD4680BD00BF41
:100D60000000024080B584B000AF1C233B7000231C
:100D70007B700123BB700123FB703B46184600F0DB
:100D800099F901200121FFF739FC4FF47A73BB6018
:100D90000F23BB800023BB810023FB803B1D4FF052
:100DA0008040194600F0E4F94FF080400121012213
:100DB00000F044FC4FF08040012100F063FA10374E
:100DC000BD4680BD80B58AB000AF02200121FFF78B
:100DD00015FC02200121FFF7F3FB02233B761323CE
:100DE0007B6102237B760123FB760023BB7607F130
:100DF00014032C481946FFF705FE2A480021022259
:100E0000FFF7A8FE274801210222FFF7A3FE25488D
:100E100004210222FFF79EFE0023FB830023BB84F4
:100E200042F210733B620F23BB8307F11C031E4881
:100E3000194600F09DF960233B8001237B8000234D
:100E4000BB600223BB813B461748194600F03AFAC3
:100E50001548082100F09CFB01237B800023BB6028
:100E60003B461148194600F0A7FA0F48082100F048
:100E7000ABFB01237B800023BB603B460A4819463D
:100E800000F020FB0848082100F0BAFB06480121C9
:100E900000F0D8F90448012100F0F4F92837BD46E4
:100EA00080BD00BF000402400004004080B58CB04B
:100EB00000AF4FF480700121FFF7BEFB0420012139
:100EC000FFF77EFB07F128031846FFF729FE0423EE
:100ED000BB62032387F82C3007F128031548194615
:100EE000FFF790FD07F118031846FFF75DFC4FF47C
:100EF0008033FB6107F118031846FFF72DFC3B46D2
:100F00001846FFF70BFC00233B603B460A48194696
:100F1000FFF7B0FB08480121FFF75CFC3B460648A1
:100F20001946FFF7A7FB04480121FFF753FC3037B0
:100F3000BD4680BD000802400020014080B500AFE2
:100F40000B480C2101220123FFF760FC0848FFF742
:100F500021FD00BF06480221FFF73AFD0346012BA1
:100F6000F8D10348FFF726FD0346184680BD00BFB1
:100F70000020014080B485B000AF78600023FB60A2
:100F8000324BFB607B689B79002B4DD02F4B2F4A57
:100F900011687A681268D2430A401A602B4B2B4AB8
:100FA00051687A681268D2430A405A607B681B799C
:100FB000FA681344FB60FB68FA6811687A68126883
:100FC0000A431A60214B214A91687A681268D24319
:100FD0000A409A601D4B1D4AD1687A681268D24354
:100FE0000A40DA607B685B79102B0ED1174B174AE9
:100FF00091687A6812680A439A60144B134AD16860
:101000007A6812680A43DA601BE0104BFB607B6869
:101010005B79FA681344FB60FB68FA6811687A68C8
:1010200012680A431A600CE07B681B79FA68134463
:10103000FB60FB68FA6811687A681268D2430A405C
:101040001A601437BD465DF8047B7047003C0140D0
:1010500080B483B000AF7860034B7A685A610C3774
:10106000BD465DF8047B7047003C014080B485B00C
:1010700000AF78600023FB730023BB600C4B1A6841
:101080007B681340BB600A4B5A697B681340002B96
:1010900005D0BB68002B02D00123FB7301E00023C5
:1010A000FB73FB7B18461437BD465DF8047B704725
:1010B000003C014080B485B000AF78600023FB7332
:1010C0000023BB730F237B737B68DB78002B37D047
:1010D000254BDB68DB4303F4E0631B0AFB73FB7BFC
:1010E000C3F10403BB737A7BFB7B42FA03F37B738C
:1010F0007B685B781A46BB7B02FA03F3FB737B6861
:101100009A787B7B1340DAB2FB7B1343FB73FB7B48
:101110001B01FB73154A7B681B781344FA7B83F829
:101120000023124B7A6812785209D2B27968097892
:1011300001F01F01012000FA01F143F822100EE036
:101140000A4B7A6812785209D2B27968097801F0AC
:101150001F01012000FA01F1203243F82210143758
:10116000BD465DF8047B704700ED00E000E100E063
:1011700080B485B000AF786039600023FB817B6864
:101180001B88FB817A68284B9A4213D07A68274BD8
:101190009A420FD07B68B3F1804F0BD07A68244B12
:1011A0009A4207D07A68234B9A4203D07A68224B3E
:1011B0009A4208D1FB8923F07003FB813B685A886F
:1011C000FB891343FB817A681C4B9A420CD07A68E6
:1011D0001B4B9A4208D0FB8923F44073FB813B6888
:1011E0001A89FB891343FB817B68FA891A803B6863
:1011F0005A687B68DA623B681A887B681A857A6865
:10120000094B9A4203D07A68084B9A4204D13B6852
:101210009B7A1A467B681A867B6801229A82143769
:10122000BD465DF8047B70470000014000040140AA
:101230000004004000080040000C00400010004086
:101240000014004080B483B000AF78600B46FB70A0
:10125000FB78002B08D07B681B889BB243F080038F
:101260009AB27B681A8007E07B681B889BB223F0E8
:1012700080039AB27B681A800C37BD465DF8047B08
:10128000704700BF80B483B000AF78600B46FB703E
:10129000FB78002B08D07B681B889BB243F00103CE
:1012A0009AB27B681A8007E07B681B889BB223F0A8
:1012B00001039AB27B681A800C37BD465DF8047B47
:1012C000704700BF80B485B000AF786039600023FC
:1012D0007B810023FB810023BB817B681B8C9BB23D
:1012E00023F001039AB27B681A847B681B8CFB8114
:1012F0007B689B88BB817B681B8B7B817B8923F010
:1013000070037B817B8923F003037B813B681A8810
:101310007B8913437B81FB8923F00203FB813B68BC
:101320009A89FB891343FB813B685A88FB891343E5
:10133000FB817A681E4B9A4203D07A681D4B9A4211
:1013400023D1FB8923F00803FB813B68DA89FB8901
:101350001343FB81FB8923F00403FB813B689A88DC
:10136000FB891343FB81BB8923F48073BB81BB8959
:1013700023F40073BB813B681A8ABB891343BB818A
:101380003B685A8ABB891343BB817B68BA899A80C0
:101390007B687A891A833B689A687B685A637B68A2
:1013A000FA891A841437BD465DF8047B704700BF84
:1013B000000001400004014080B485B000AF7860B7
:1013C000396000237B810023FB810023BB817B6884
:1013D0001B8C9BB223F480739AB27B681A847B685F
:1013E0001B8CFB817B689B88BB817B689B8B7B8193
:1013F0007B8923F070037B817B8923F003037B814E
:101400003B681A887B8913437B81FB8923F4007333
:10141000FB813B689B891B029AB2FB891343FB81CA
:101420003B685B881B029AB2FB891343FB817A6895
:10143000224B9A4203D07A68214B9A422BD1FB89E6
:1014400023F40063FB813B68DB891B029AB2FB89B2
:101450001343FB81FB8923F48063FB813B689B88FA
:101460001B029AB2FB891343FB81BB8923F480538F
:10147000BB81BB8923F40053BB813B681B8A1B01E2
:101480009AB2BB891343BB813B685B8A1B019AB24A
:10149000BB891343BB817B68BA899A807B687A8950
:1014A0009A833B689A687B68DA637B68FA891A8456
:1014B0001437BD465DF8047B704700BF0000014053
:1014C0000004014080B485B000AF7860396000232B
:1014D000BB8100237B810023FB817B681B8C9BB23B
:1014E00023F480539AB27B681A847B681B8C7B81BF
:1014F0007B689B88FB817B689B8BBB81BB8923F4CA
:10150000E043BB81BB8923F44073BB813B681B88EC
:101510001B029AB2BB891343BB817B8923F400531E
:101520007B813B689B891B039AB27B8913437B8138
:101530003B685B881B039AB27B8913437B817A6883
:10154000114B9A4203D07A68104B9A420AD1FB8918
:1015500023F48043FB813B681B8A9B019AB2FB8981
:101560001343FB817B68FA899A807B68BA899A83E6
:101570003B689A687B681A647B687A891A84143796
:10158000BD465DF8047B7047000001400004014047
:1015900080B485B000AF78600B467B800023FB8170
:1015A0007B681B8BFB81FB8923F00803FB81FA8995
:1015B0007B881343FB817B68FA891A831437BD4605
:1015C0005DF8047B704700BF80B485B000AF7860E1
:1015D0000B467B800023FB817B689B8BFB81FB8917
:1015E00023F00803FB81FA897B881343FB817B6826
:1015F000FA899A831437BD465DF8047B704700BFB3
:1016000080B485B000AF78600B467B800023FB81FF
:101610007B689B8BFB81FB8923F40063FB817B88C8
:101620001B029AB2FB891343FB817B68FA899A8378
:101630001437BD465DF8047B704700BF80B483B0AB
:1016400000AF786013460A467A807B707B78002B67
:1016500008D07B689B899AB27B8813439AB27B68D7
:101660009A8109E07B689B899AB27B88DB439BB2B5
:1016700013409AB27B689A810C37BD465DF8047BB3
:10168000704700BF80B485B000AF78600B467B80A8
:101690000023FB730023BB8100237B817B681B8AB3
:1016A0009AB27B881340BB817B689B899AB27B8806
:1016B00013407B81BB89002B05D07B89002B02D096
:1016C0000123FB7301E00023FB73FB7B18461437F7
:1016D000BD465DF8047B704780B483B000AF78608E
:1016E0000B467B807B88DB439AB27B681A820C377F
:1016F000BD465DF8047B704781F0004102E000BF09
:1017000083F0004330B54FEA41044FEA430594EAC1
:10171000050F08BF90EA020F1FBF54EA000C55EAFC
:10172000020C7FEA645C7FEA655C00F0E2804FEACD
:101730005454D4EB5555B8BF6D420CDD2C4480EAAF
:10174000020281EA030382EA000083EA010180EADF
:10175000020281EA0303362D88BF30BD11F0004F2D
:101760004FEA01314FF4801C4CEA113102D0404263
:1017700061EB410113F0004F4FEA03334CEA13339E
:1017800002D0524263EB430394EA050F00F0A780B6
:10179000A4F10104D5F1200E0DDB02FA0EFC22FAB1
:1017A00005F2801841F1000103FA0EF2801843FAA5
:1017B00005F359410EE0A5F120050EF1200E012A96
:1017C00003FA0EFC28BF4CF0020C43FA05F3C018D4
:1017D00051EBE37101F0004507D54FF0000EDCF14D
:1017E000000C7EEB00006EEB0101B1F5801F1BD3F6
:1017F000B1F5001F0CD349085FEA30004FEA3C0CFA
:1018000004F101044FEA445212F5800F80F09A80EF
:10181000BCF1004F08BF5FEA500C50F1000041EBF3
:10182000045141EA050130BD5FEA4C0C404141EBF7
:10183000010111F4801FA4F10104E9D191F0000F1E
:1018400004BF01460020B1FA81F308BF2033A3F1A1
:101850000B03B3F120020CDA0C3208DD02F1140C98
:10186000C2F10C0201FA0CF021FA02F10CE002F1D3
:101870001402D8BFC2F1200C01FA02F120FA0CFCCC
:10188000DCBF41EA0C019040E41AA2BF01EB045115
:10189000294330BD6FEA04041F3C1CDA0C340EDC13
:1018A00004F11404C4F1200220FA04F001FA02F356
:1018B00040EA030021FA04F345EA030130BDC4F114
:1018C0000C04C4F1200220FA02F001FA04F340EA09
:1018D0000300294630BD21FA04F0294630BD94F0BA
:1018E000000F83F4801306BF81F480110134013DA1
:1018F0004EE77FEA645C18BF7FEA655C29D094EA12
:10190000050F08BF90EA020F05D054EA000C04BF8F
:101910001946104630BD91EA030F1EBF002100207A
:1019200030BD5FEA545C05D14000494128BF41F019
:10193000004130BD14F580043CBF01F5801130BD7D
:1019400001F0004545F0FE4141F470014FF0000008
:1019500030BD7FEA645C1ABF194610467FEA655CB9
:101960001CBF0B46024650EA013406BF52EA03355B
:1019700091EA030F41F4002130BD00BF90F0000F49
:1019800004BF0021704730B54FF4806404F1320485
:101990004FF000054FF0000150E700BF90F0000F3E
:1019A00004BF0021704730B54FF4806404F1320465
:1019B00010F0004548BF40424FF000013EE700BF35
:1019C00042004FEAE2014FEA31014FEA02701FBFC5
:1019D00012F07F4393F07F4F81F06051704792F097
:1019E000000F14BF93F07F4F704730B54FF4607411
:1019F00001F0004521F0004120E700BF50EA01025C
:101A000008BF704730B54FF000050AE050EA010208
:101A100008BF704730B511F0004502D5404261EB78
:101A200041014FF4806404F132045FEA915C3FF4B9
:101A3000DCAE4FF003025FEADC0C18BF03325FEA52
:101A4000DC0C18BF033202EBDC02C2F1200300FA07
:101A500003FC20FA02F001FA03FE40EA0E0021FA2C
:101A600002F11444C1E600BF70B54FF0FF0C4CF416
:101A7000E06C1CEA11541DBF1CEA135594EA0C0FCC
:101A800095EA0C0F00F0DEF82C4481EA030621EA07
:101A90004C5123EA4C5350EA013518BF52EA033542
:101AA00041F4801143F4801338D0A0FB02CE4FF0F4
:101AB0000005E1FB02E506F00042E0FB03E54FF024
:101AC0000006E1FB03569CF0000F18BF4EF0010E1C
:101AD000A4F1FF04B6F5007F64F5407404D25FEA18
:101AE0004E0E6D4146EB060642EAC62141EA5551CB
:101AF0004FEAC52040EA5E504FEACE2EB4F1FD0C0D
:101B000088BFBCF5E06F1ED8BEF1004F08BF5FEA8A
:101B1000500E50F1000041EB045170BD06F000463C
:101B200046EA010140EA020081EA0301B4EB5C04E9
:101B3000C2BFD4EB0C0541EA045170BD41F48011E1
:101B40004FF0000E013C00F3AB8014F1360FDEBF06
:101B5000002001F0004170BDC4F10004203C35DAE2
:101B60000C341BDC04F11404C4F1200500FA05F365
:101B700020FA04F001FA05F240EA020001F0004206
:101B800021F0004110EBD37021FA04F642EB06017C
:101B90005EEA430E08BF20EAD37070BDC4F10C04A6
:101BA000C4F1200500FA04F320FA05F001FA04F26A
:101BB00040EA020001F0004110EBD37041F1000156
:101BC0005EEA430E08BF20EAD37070BDC4F1200561
:101BD00000FA05F24EEA020E20FA04F301FA05F2C9
:101BE00043EA020321FA04F001F0004121FA04F271
:101BF00020EA020000EBD3705EEA430E08BF20EA41
:101C0000D37070BD94F0000F0FD101F0004640007A
:101C100041EB010111F4801F08BF013CF7D041EAFC
:101C2000060195F0000F18BF704703F00046520000
:101C300043EB030313F4801F08BF013DF7D043EAD1
:101C40000603704794EA0C0F0CEA135518BF95EA87
:101C50000C0F0CD050EA410618BF52EA4306D1D10E
:101C600081EA030101F000414FF0000070BD50EA2D
:101C7000410606BF1046194652EA430619D094EAB7
:101C80000C0F02D150EA013613D195EA0C0F05D1A1
:101C900052EA03361CBF104619460AD181EA0301F5
:101CA00001F0004141F0FE4141F470014FF00000AD
:101CB00070BD41F0FE4141F4780170BD70B54FF048
:101CC000FF0C4CF4E06C1CEA11541DBF1CEA1355C8
:101CD00094EA0C0F95EA0C0F00F0A7F8A4EB0504AA
:101CE00081EA030E52EA03354FEA013100F08880A1
:101CF0004FEA03334FF0805545EA131343EA12636A
:101D00004FEA022245EA111545EA10654FEA00261E
:101D10000EF000419D4208BF964244F1FD0404F5D7
:101D2000407402D25B084FEA3202B61A65EB030533
:101D30005B084FEA32024FF480104FF4002CB6EBF0
:101D4000020E75EB030E22BFB61A754640EA0C0070
:101D50005B084FEA3202B6EB020E75EB030E22BFB0
:101D6000B61A754640EA5C005B084FEA3202B6EBF1
:101D7000020E75EB030E22BFB61A754640EA9C00B0
:101D80005B084FEA3202B6EB020E75EB030E22BF80
:101D9000B61A754640EADC0055EA060E18D04FEA3E
:101DA000051545EA16754FEA06164FEAC30343EADE
:101DB00052734FEAC2025FEA1C1CC0D111F4801FAB
:101DC0000BD141EA00014FF000004FF0004CB6E7A4
:101DD00011F4801F04BF01430020B4F1FD0C88BF43
:101DE000BCF5E06F3FF6AFAEB5EB030C04BFB6EB4E
:101DF000020C5FEA500C50F1000041EB045170BD41
:101E00000EF0004E4EEA113114EB5C04C2BFD4EB6D
:101E10000C0541EA045170BD41F480114FF0000EF1
:101E2000013C90E645EA060E8DE60CEA135594EA6D
:101E30000C0F08BF95EA0C0F3FF43BAF94EA0C0F70
:101E40000AD150EA01347FF434AF95EA0C0F7FF4E5
:101E500025AF104619462CE795EA0C0F06D152EA39
:101E600003353FF4FDAE1046194622E750EA41061D
:101E700018BF52EA43067FF4C5AE50EA41047FF42E
:101E80000DAF52EA43057FF4EBAE12E74FEA410291
:101E9000B2F1E04324BFB3F5001CDCF1FE5C0DD9C8
:101EA00001F0004C4FEAC0024CEA5070B2F1004F12
:101EB00040EB830008BF20F00100704711F0804F15
:101EC00021D113F13872BCBF01F00040704741F4DA
:101ED00080114FEA5252C2F11802C2F1200C10FADE
:101EE0000CF320FA02F018BF40F001004FEAC123C2
:101EF0004FEAD32303FA0CFC40EA0C0023FA02F366
:101F00004FEA4303CCE77FEA625307D150EA01333B
:101F10001EBF4FF0FE4040F44000704701F000400B
:101F200040F0FE4040F40000704700BF80F00040E9
:101F300002E000BF81F0004142001FBF5FEA4103A1
:101F400092EA030F7FEA226C7FEA236C6AD04FEAA1
:101F50001262D2EB1363C1BFD218414048404140E6
:101F6000B8BF5B42192B88BF704710F0004F40F498
:101F7000000020F07F4018BF404211F0004F41F4B4
:101F8000000121F07F4118BF494292EA030F3FD080
:101F9000A2F1010241FA03FC10EB0C00C3F1200393
:101FA00001FA03F100F0004302D5494260EB400022
:101FB000B0F5000F13D3B0F1807F06D340084FEA8D
:101FC000310102F10102FE2A51D2B1F1004F40EB82
:101FD000C25008BF20F0010040EA030070474900EA
:101FE00040EB000010F4000FA2F10102EDD1B0FAB5
:101FF00080FCACF1080CB2EB0C0200FA0CF0AABFAA
:1020000000EBC25052421843BCBFD0401843704747
:1020100092F0000F81F4000106BF80F4000001324D
:10202000013BB5E74FEA41037FEA226C18BF7FEA24
:10203000236C21D092EA030F04D092F0000F08BF66
:102040000846704790EA010F1CBF0020704712F04D
:102050007F4F04D1400028BF40F00040704712F18C
:1020600000723CBF00F50000704700F0004343F0F1
:10207000FE4040F4000070477FEA226216BF084627
:102080007FEA23630146420206BF5FEA412390EAEA
:10209000010F40F4800070474FF0000304E000BFE0
:1020A00010F0004348BF40425FEA000C08BF704791
:1020B00043F0964301464FF000001CE050EA010255
:1020C00008BF70474FF000030AE000BF50EA01026A
:1020D00008BF704711F0004302D5404261EB410157
:1020E0005FEA010C02BF84460146002043F0B6437C
:1020F00008BFA3F18053A3F50003BCFA8CF2083AA1
:10210000A3EBC25310DB01FA02FC634400FA02FCA9
:10211000C2F12002BCF1004F20FA02F243EB0200B0
:1021200008BF20F00100704702F1200201FA02FC12
:10213000C2F1200250EA4C0021FA02F243EB020005
:1021400008BF20EADC7070474FF0FF0C1CEAD05249
:102150001EBF1CEAD15392EA0C0F93EA0C0F6FD00A
:102160001A4480EA010C400218BF5FEA41211ED0E8
:102170004FF0006343EA501043EA5111A0FB0131D4
:102180000CF00040B1F5000F3EBF490041EAD371A9
:102190005B0040EA010062F17F02FD2A1DD8B3F125
:1021A000004F40EBC25008BF20F00100704790F094
:1021B000000F0CF0004C08BF49024CEA502040EAE6
:1021C00051207F3AC2BFD2F1FF0340EAC2507047AC
:1021D00040F400004FF00003013A5DDC12F1190FEA
:1021E000DCBF00F000407047C2F10002410021FA5C
:1021F00002F1C2F1200200FA02FC5FEA310040F174
:10220000000053EA4C0308BF20EADC70704792F0EC
:10221000000F00F0004C02BF400010F4000F013A24
:10222000F9D040EA0C0093F0000F01F0004C02BF1F
:10223000490011F4000F013BF9D041EA0C018FE78E
:102240000CEAD15392EA0C0F18BF93EA0C0F0AD094
:1022500030F0004C18BF31F0004CD8D180EA0100BA
:1022600000F00040704790F0000F17BF90F0004F53
:10227000084691F0000F91F0004F14D092EA0C0F35
:1022800001D142020FD193EA0C0F03D14B0218BFC8
:10229000084608D180EA010000F0004040F0FE400E
:1022A00040F40000704740F0FE4040F440007047AA
:1022B0004FF0FF0C1CEAD0521EBF1CEAD15392EA29
:1022C0000C0F93EA0C0F69D0A2EB030280EA010C19
:1022D00049024FEA402037D04FF0805343EA1111B2
:1022E00043EA10130CF000408B4238BF5B0042F110
:1022F0007D024FF4000C8B4224BF5B1A40EA0C00B5
:10230000B3EB510F24BFA3EB510340EA5C00B3EBE6
:10231000910F24BFA3EB910340EA9C00B3EBD10FD4
:1023200024BFA3EBD10340EADC001B0118BF5FEA26
:102330001C1CE0D1FD2A3FF650AF8B4240EBC2504F
:1023400008BF20F0010070470CF0004C4CEA502010
:102350007F32C2BFD2F1FF0340EAC250704740F45F
:1023600000004FF00003013A37E792F0000F00F051
:10237000004C02BF400010F4000F013AF9D040EACF
:102380000C0093F0000F01F0004C02BF490011F463
:10239000000F013BF9D041EA0C0195E70CEAD1535B
:1023A00092EA0C0F08D142027FF47DAF93EA0C0F42
:1023B0007FF470AF084676E793EA0C0F04D14B0226
:1023C0003FF44CAF08466EE730F0004C18BF31F0D8
:1023D000004CCAD130F000427FF45CAF31F00043D2
:1023E0007FF43CAF5FE700BF4FF0FF3C06E000BF6B
:1023F0004FF0010C02E000BF4FF0010C4DF804CD8E
:102400004FEA40024FEA41037FEA226C18BF7FEA9D
:10241000236C11D001B052EA530C18BF90EA010F9F
:1024200058BFB2EB030088BFC81738BF6FEAE1702E
:1024300018BF40F0010070477FEA226C02D15FEACA
:10244000402C05D17FEA236CE4D15FEA412CE1D036
:102450005DF8040B704700BF844608466146FFE7FD
:102460000FB5FFF7C9FF002848BF10F1000F0FBDDF
:102470004DF808EDFFF7F4FF0CBF012000205DF8D8
:1024800008FB00BF4DF808EDFFF7EAFF34BF01205D
:1024900000205DF808FB00BF4DF808EDFFF7E0FFF6
:1024A00094BF012000205DF808FB00BF4DF808ED47
:1024B000FFF7D2FF94BF012000205DF808FB00BFAA
:1024C0004DF808EDFFF7C8FF34BF012000205DF88C
:1024D00008FB00BF42000ED2B2F1FE4F0BD34FF00B
:1024E0009E03B3EB126209D44FEA002343F000438A
:1024F00023FA02F070474FF00000704712F1610FAD
:1025000001D1420202D14FF0FF3070474FF000007E
:10251000704700BF01000200100000003C040040B2
:082520004004004034040040B7
:04252800E8030000C4
:0400000508000000EF
:00000001FF
