:020000040800F2
:1000000008080020050200086102000861020008DB
:10001000610200086102000861020008000000009F
:100020000000000000000000000000006102000865
:10003000610200080000000061020008610200087F
:100040006102000861020008610200086102000804
:100050006102000861020008A105000861020008B1
:1000600061020008610200086102000861020008E4
:1000700061020008610200086102000861020008D4
:1000800061020008610200086102000861020008C4
:1000900061020008610200086102000861020008B4
:1000A00061020008610200086102000861020008A4
:1000B000BD05000861020008610200086102000835
:1000C0006102000861020008610200086102000884
:1000D0006102000861020008610200086102000874
:1000E0006102000861020008610200086102000864
:1000F0006102000861020008610200086102000854
:100100006102000861020008610200086102000843
:100110006102000861020008610200086102000833
:100120006102000861020008610200086102000823
:100130006102000861020008610200086102000813
:100140006102000861020008610200086102000803
:1001500061020008610200086102000861020008F3
:1001600061020008610200086102000861020008E3
:1001700061020008610200086102000861020008D3
:10018000610200086102000890B484B000AF02462A
:100190000B46FA71BB710023FB60BB7903F00303CC
:1001A0009B000F2202FA03F3FB60154BBA79920809
:1001B000D2B21349B8798008C0B2023051F8200099
:1001C000F968C9430140023243F822100C4BBA7956
:1001D0009208D2B20A49B8798008C0B2023051F808
:1001E0002000FC79B97901F00301890004FA01F1DA
:1001F0000143023243F822101037BD4690BC7047CD
:100200000038014080B582B000AF104B7B60104BCE
:100210003B6007E03B681A1D3A607A68111D7960FF
:1002200012681A603A680B4B9A42F3D30A480B499A
:100230004FF000028842B8BF40F8042BFFF6FAAF37
:1002400000F012F80837BD4680BD00BF640F0008FB
:10025000000000200400002004000020080000200E
:1002600080B400AFFEE700BF80B582B000AF00F001
:10027000C5F900237B6000233B607B68DBB2002074
:10028000194600F057F97B68DBB20120194600F0EF
:1002900051F97B68DBB20220194600F04BF90A20C5
:1002A00000F068F97B68DBB20020194600F042F9E3
:1002B0007B68632B01DD00233B607B68002B01DC46
:1002C00001233B603B68002B03D07B6801337B60DC
:1002D000E5E77B68013B7B60E1E700BF80B400AFEE
:1002E000BD465DF8047B704780B400AF084B1B88A7
:1002F000013B9AB2064B1A80054B1B88002B03D199
:10030000034B4FF47A721A80BD465DF8047B704748
:100310000000002080B483B000AF78600B46FB7013
:10032000FB78002B06D0094B084A116B7A680A4308
:100330001A6306E0054B054A116B7A68D2430A40FE
:100340001A630C37BD465DF8047B704700380240E5
:1003500080B483B000AF78600B46FB70FB78002B55
:1003600006D0094B084A116C7A680A431A6406E001
:10037000054B054A116C7A68D2430A401A640C375F
:10038000BD465DF8047B70470038024080B487B0FA
:1003900000AF7860396000237B6100233B6100235C
:1003A000FB6000237B6176E07B69012202FA03F3A4
:1003B0003B613B681A683B691340FB60FA683B6924
:1003C0009A4265D17B681A687B695B00032101FA58
:1003D00003F3DB431A407B681A607B681A683B684A
:1003E0001B7919467B695B0001FA03F31A437B68AA
:1003F0001A603B681B79012B03D03B681B79022BE9
:100400002ED17B689A687B695B00032101FA03F3B4
:10041000DB431A407B689A607B689A683B685B792B
:1004200019467B695B0001FA03F31A437B689A6003
:100430007B685A687B699BB2012101FA03F3DB43B5
:100440001A407B685A607B685A683B689B791946FA
:100450007B699BB201FA03F39BB21A437B685A6033
:100460007B68DA687B699BB25B00032101FA03F3C6
:10047000DB431A407B68DA607B68DA683B68DB79CB
:1004800019467B695B0001FA03F31A437B68DA6063
:100490007B6901337B617B690F2B85D91C37BD4696
:1004A0005DF8047B704700BF80B485B000AF786012
:1004B00013460A467A807B700023FB600023BB60F2
:1004C0007A787B8803F007039B0002FA03F3FB6052
:1004D0007B88DB089BB21A467B88DB089BB21946F7
:1004E0007B68083153F821107B8803F007039B00D9
:1004F0000F2000FA03F3DB4319407B68083243F80E
:1005000022107B88DB089BB21A467B68083253F8BE
:100510002220FB681343BB607B88DB089BB21A4632
:100520007B680832B96843F822101437BD465DF87D
:10053000047B704780B483B000AF02460B46FA716B
:10054000BB71FA79094B53F82220BB7942F2107142
:1005500001FB03F3064981FB03014911DB17CB1AA9
:1005600013600C37BD465DF8047B7047580F0008D8
:100570001F85EB5180B483B000AF0346FB80074B6F
:10058000FA881A8000BF054B1B889BB2002BFAD15A
:100590000C37BD465DF8047B704700BF04000020A7
:1005A00080B500AF012000F08DF90346002B04D088
:1005B000012000F079F9FFF791FE80BD80B500AF12
:1005C0004FF08040012100F089FC0346002B12D03F
:1005D0004FF08040012100F0ABFCFFF785FE064B99
:1005E0001B889BB2002B06D0034B1B889BB2013BA0
:1005F0009AB2014B1A8080BD0400002080B500AF84
:1006000000F070F800F004F800F03CF880BD00BF86
:1006100080B586B000AF01200121FFF77BFE0123EA
:100620003B6100233B7502237B750023BB750223CE
:10063000FB7507F1100312481946FFF7A7FE0020CB
:100640000021FFF7A1FD01237B6000233B721023F3
:100650007B720123BB723B1D184600F0B7F80623DE
:100660003B7301237B730123BB730123FB7307F1EE
:100670000C03184600F04AF91837BD4680BD00BF8C
:100680000000024080B584B000AF1C233B70002303
:100690007B700123BB700123FB703B46184600F0C2
:1006A00035F901200121FFF753FE4FF47A73BB6047
:1006B0000F23BB800023BB810023FB803B1D4FF039
:1006C0008040194600F080F94FF08040012101225E
:1006D00000F0E0FB4FF08040012100F0FFF91037FF
:1006E000BD4680BD80B58AB000AF02200121FFF772
:1006F0002FFE02200121FFF70DFE02233B7613237C
:100700007B6102237B760123FB760023BB7607F116
:1007100014032C481946FFF739FE2A48002102220B
:10072000FFF7C2FE274801210222FFF7BDFE254840
:1007300004210222FFF7B8FE0023FB830023BB84C1
:1007400042F210733B620F23BB8307F11C031E4868
:10075000194600F039F960233B8001237B80002398
:10076000BB600223BB813B461748194600F0D6F90F
:100770001548082100F038FB01237B800023BB6073
:100780003B461148194600F043FA0F48082100F093
:1007900047FB01237B800023BB603B460A48194688
:1007A00000F0BCFA0848082100F056FB0648012179
:1007B00000F074F90448012100F090F92837BD4693
:1007C00080BD00BF000402400004004080B485B03A
:1007D00000AF78600023FB60324BFB607B689B7945
:1007E000002B4DD02F4B2F4A11687A681268D243E4
:1007F0000A401A602B4B2B4A51687A681268D24320
:100800000A405A607B681B79FA681344FB60FB68F6
:10081000FA6811687A6812680A431A60214B214A03
:1008200091687A681268D2430A409A601D4B1D4A4B
:10083000D1687A681268D2430A40DA607B685B79D3
:10084000102B0ED1174B174A91687A6812680A4329
:100850009A60144B134AD1687A6812680A43DA60C6
:100860001BE0104BFB607B685B79FA681344FB600C
:10087000FB68FA6811687A6812680A431A600CE02B
:100880007B681B79FA681344FB60FB68FA6811689F
:100890007A681268D2430A401A601437BD465DF880
:1008A000047B7047003C014080B483B000AF7860A7
:1008B000034B7A685A610C37BD465DF8047B70477C
:1008C000003C014080B485B000AF78600023FB732A
:1008D0000023BB600C4B1A687B681340BB600A4B5B
:1008E0005A697B681340002B05D0BB68002B02D0EF
:1008F0000123FB7301E00023FB73FB7B18461437D5
:10090000BD465DF8047B7047003C014080B485B073
:1009100000AF78600023FB730023BB730F237B734E
:100920007B68DB78002B37D0254BDB68DB4303F497
:10093000E0631B0AFB73FB7BC3F10403BB737A7B8D
:10094000FB7B42FA03F37B737B685B781A46BB7BC5
:1009500002FA03F3FB737B689A787B7B1340DAB26D
:10096000FB7B1343FB73FB7B1B01FB73154A7B680B
:100970001B781344FA7B83F80023124B7A681278B1
:100980005209D2B27968097801F01F01012000FAFA
:1009900001F143F822100EE00A4B7A6812785209EE
:1009A000D2B27968097801F01F01012000FA01F143
:1009B000203243F822101437BD465DF8047B70479F
:1009C00000ED00E000E100E080B485B000AF7860A9
:1009D00039600023FB817B681B88FB817A68284B88
:1009E0009A4213D07A68274B9A420FD07B68B3F1B2
:1009F000804F0BD07A68244B9A4207D07A68234BF9
:100A00009A4203D07A68224B9A4208D1FB8923F09C
:100A10007003FB813B685A88FB891343FB817A682A
:100A20001C4B9A420CD07A681B4B9A4208D0FB8927
:100A300023F44073FB813B681A89FB891343FB81D4
:100A40007B68FA891A803B685A687B68DA623B687F
:100A50001A887B681A857A68094B9A4203D07A68AB
:100A6000084B9A4204D13B689B7A1A467B681A86E7
:100A70007B6801229A821437BD465DF8047B70477B
:100A80000000014000040140000400400008004054
:100A9000000C0040001000400014004080B483B0FF
:100AA00000AF78600B46FB70FB78002B08D07B68AA
:100AB0001B889BB243F080039AB27B681A8007E0E0
:100AC0007B681B889BB223F080039AB27B681A80F4
:100AD0000C37BD465DF8047B704700BF80B483B01F
:100AE00000AF78600B46FB70FB78002B08D07B686A
:100AF0001B889BB243F001039AB27B681A8007E01F
:100B00007B681B889BB223F001039AB27B681A8032
:100B10000C37BD465DF8047B704700BF80B485B0DC
:100B200000AF7860396000237B810023FB810023C4
:100B3000BB817B681B8C9BB223F001039AB27B685C
:100B40001A847B681B8CFB817B689B88BB817B68DC
:100B50001B8B7B817B8923F070037B817B8923F056
:100B600003037B813B681A887B8913437B81FB8964
:100B700023F00203FB813B689A89FB891343FB81C5
:100B80003B685A88FB891343FB817A681E4B9A4263
:100B900003D07A681D4B9A4223D1FB8923F00803C6
:100BA000FB813B68DA89FB891343FB81FB8923F0D6
:100BB0000403FB813B689A88FB891343FB81BB8953
:100BC00023F48073BB81BB8923F40073BB813B6832
:100BD0001A8ABB891343BB813B685A8ABB8913437A
:100BE000BB817B68BA899A807B687A891A833B6863
:100BF0009A687B685A637B68FA891A841437BD4601
:100C00005DF8047B704700BF000001400004014014
:100C100080B485B000AF7860396000237B81002309
:100C2000FB810023BB817B681B8C9BB223F4807308
:100C30009AB27B681A847B681B8CFB817B689B88DB
:100C4000BB817B689B8B7B817B8923F070037B81DD
:100C50007B8923F003037B813B681A887B891343DC
:100C60007B81FB8923F40073FB813B689B891B021A
:100C70009AB2FB891343FB813B685B881B029AB2E3
:100C8000FB891343FB817A68224B9A4203D07A682E
:100C9000214B9A422BD1FB8923F40063FB813B68F3
:100CA000DB891B029AB2FB891343FB81FB8923F486
:100CB0008063FB813B689B881B029AB2FB891343CC
:100CC000FB81BB8923F48053BB81BB8923F4005390
:100CD000BB813B681B8A1B019AB2BB891343BB8152
:100CE0003B685B8A1B019AB2BB891343BB817B685B
:100CF000BA899A807B687A899A833B689A687B680C
:100D0000DA637B68FA891A841437BD465DF8047B80
:100D1000704700BF000001400004014080B485B06E
:100D200000AF786039600023BB8100237B81002302
:100D3000FB817B681B8C9BB223F480539AB27B6847
:100D40001A847B681B8C7B817B689B88FB817B681A
:100D50009B8BBB81BB8923F4E043BB81BB8923F41C
:100D60004073BB813B681B881B029AB2BB8913434B
:100D7000BB817B8923F400537B813B689B891B03E8
:100D80009AB27B8913437B813B685B881B039AB2D1
:100D90007B8913437B817A68114B9A4203D07A682E
:100DA000104B9A420AD1FB8923F48043FB813B68B4
:100DB0001B8A9B019AB2FB891343FB817B68FA89EA
:100DC0009A807B68BA899A833B689A687B681A64C0
:100DD0007B687A891A841437BD465DF8047B7047B6
:100DE000000001400004014080B485B000AF78608D
:100DF0000B467B800023FB817B681B8BFB81FB897F
:100E000023F00803FB81FA897B881343FB817B680D
:100E1000FA891A831437BD465DF8047B704700BF1A
:100E200080B485B000AF78600B467B800023FB81E7
:100E30007B689B8BFB81FB8923F00803FB81FA898C
:100E40007B881343FB817B68FA899A831437BD46FC
:100E50005DF8047B704700BF80B485B000AF786058
:100E60000B467B800023FB817B689B8BFB81FB898E
:100E700023F40063FB817B881B029AB2FB89134336
:100E8000FB817B68FA899A831437BD465DF8047B41
:100E9000704700BF80B483B000AF786013460A4645
:100EA0007A807B707B78002B08D07B689B899AB214
:100EB0007B8813439AB27B689A8109E07B689B899F
:100EC0009AB27B88DB439BB213409AB27B689A81CB
:100ED0000C37BD465DF8047B704700BF80B485B019
:100EE00000AF78600B467B800023FB730023BB813F
:100EF00000237B817B681B8A9AB27B881340BB816D
:100F00007B689B899AB27B8813407B81BB89002BCD
:100F100005D07B89002B02D00123FB7301E0002365
:100F2000FB73FB7B18461437BD465DF8047B7047A6
:100F300080B483B000AF78600B467B807B88DB4356
:100F40009AB27B681A820C37BD465DF8047B704705
:100F500001000200100000003C040040400400407A
:040F60003404004015
:040F6400E80300009E
:0400000508000000EF
:00000001FF
